:1000000093C60000C2C60000C0C60000BEC6000005
:10001000BCC60000BAC60000B8C60000B6C60000E4
:10002000B4C600000C9432470C9432470C9432470B
:10003000ACC60000AAC60000A8C60000A6C6000004
:10004000A4C60000A2C60000A0C600009EC6000014
:100050009CC600009AC6000098C600000C94E846B2
:1000600094C600000C944C5A0C94235A8EC600007F
:100070008CC600008AC6000088C6000086C6000044
:1000800084C6000082C6000080C600007EC6000054
:100090007CC600007AC6000078C600000C94D92205
:1000A00074C6000072C6000070C600006EC6000074
:1000B0006CC600006AC6000068C6000066C6000084
:1000C00064C6000062C6000060C600000C94FA59C5
:1000D0000C94D1595AC6000058C6000056C60000FC
:1000E00054C600000C0A0F0A120A150A180A1B0A45
:1000F0001E0A4A0A4D0A500A530A560A590A5C0A4D
:100100005F0A620A650A680A6B0AD645D945C8457E
:10011000CC45D0451046DD45E145E745EB45EF458B
:10012000F545F945FD451046034607460B46434E47
:10013000464E494E4C4E4F4E524E554E855B885B57
:100140008B5B8E5B915B945B975B00407A10F35AFC
:1001500000A0724E18090010A5D4E80000E8764807
:10016000170000E40B54020000CA9A3B000000E1B3
:10017000F505000080969800000040420F00000046
:10018000A08601000000102700000000E803000026
:1001900000006400000000000A00000000000100F0
:1001A000000000002C76D888DC674F0823DFC1DF11
:1001B000AE59E1B1B796E5E3E453C63AE651997614
:1001C00096E8E6C28426EB898C9B62ED407C6FFC4E
:1001D000EFBC9C9F40F2BAA56FA5F490055A2AF790
:1001E0005C936B6CF9676DC11BFCE0E40D47FEF599
:1001F00020E6B500D0ED902E030094357705008001
:10020000841E080000204E0A000000C80C3333335F
:10021000330F986E12831141EF8D2114893BE655FF
:1002200016CFFEE6DB18D1844B381BF77C1D901DE2
:10023000A4BBE424203284725E228100C9F124EC44
:10024000A1E53D27000020002300260029002C0006
:100250002F0032000001000003010601090105051D
:100260000505070508080808020202020A0A08082C
:10027000040404040101010101010101030303035A
:1002800003030303040707070C0C0C0C0C0C0C0CE9
:100290000202020206060606060606060B0B0B0BFA
:1002A0000B0B0B0B0102102020080810204010201F
:1002B000408002010201080402010102040810202A
:1002C0004080804020100804020180040201804028
:1002D0002010080402010804020101020408102091
:1002E000408001020408102040802074727920614F
:1002F0006761696E20696E2035207365636F6E6477
:1003000073006661696C65642C2072633D005075F2
:10031000626C69636174696F6E20656E20636F75CE
:10032000727300636F6E6E6563746564004174740C
:10033000656D7074696E67204D51545420636F6E03
:100340006E656374696F6E2E2E2E00457272657530
:10035000722044485420726567756C20556E6B6E30
:100360006F776E206572726F722C0900457272652C
:1003700075722044485420726567756C2054696D0D
:1003800065206F75742C0900457272657572204482
:10039000485420726567756C20436865636B73759C
:1003A0006D2C09004563726974757265204461742F
:1003B000610054656175203A2000496E69742063BC
:1003C00061727465205344204F4B00496E6974205C
:1003D000636172746520534420696D706F73736933
:1003E000626C65202100736574757020646F6E65A2
:1003F0000073657276657220697320617420007CD9
:100400003C3E5E2B3D3F2F5B5D3B2C2A225C000077
:100410005EBCE2613FDD83C29C7E20A3FD1F419D47
:10042000C3217FFCA2401E5F01E3BD3E6082DC234E
:100430007D9FC1421CFEA0E1BF5D0380DE3C62BE29
:10044000E0025CDF81633D7C22C09E1D43A1FF462C
:1004500018FAA427799BC584DA3866E5BB5907DB0F
:10046000856739BAE406581947A5FB7826C49A650A
:100470003BD987045AB8E6A7F91B45C6987A24F8F1
:10048000A6441A99C7257B3A6486D85B05E7B98CE0
:10049000D2306EEDB3510F4E10F2AC2F7193CD11DF
:1004A0004FADF3702ECC92D38D6F31B2EC0E50AFB6
:1004B000F1134DCE90722C6D33D18F0C52B0EE32C1
:1004C0006C8ED0530DEFB1F0AE4C1291CF2D73CA9C
:1004D000947628ABF517490856B4EA6937D58B5797
:1004E00009EBB536688AD495CB2977F4AA4816E982
:1004F000B7550B88D6346A2B7597C94A14F6A87479
:100500002AC896154BA9F7B6E80A54D7896B350067
:10051000002100240027002A002D003000330001B4
:10052000010000040107010A010000220025002843
:10053000002B002E003100340002010000050108EC
:10054000010B0100000A0B02090C0D0E0807030441
:10055000010000000000000000000000000000009A
:100560000000000000000000000000000000001279
:10057000111000000000000000000000000000005A
:10058000000000000000000000636C69656E7420CC
:10059000646973636F6E6E6563746564003C2F6895
:1005A000746D6C3E003C2F666F6E743E003C627250
:1005B000202F3E003C6272202F3E003C2F666F6E63
:1005C000743E003C2F74643E3C2F74723E3C2F748A
:1005D00061626C653E00436F6E7369676E65203AB9
:1005E000203C2F74643E3C74643E003C7461626C39
:1005F000653E3C74723E3C74643E003C666F6E74B3
:100600002073697A653D343E003C2F666F6E743E00
:10061000003C6272202F3E004F4646004F4E00487D
:100620006F72732047656C203A20003C666F6E74D1
:100630002073697A653D353E003C6272202F3E0092
:100640003C6272202F3E003C2F666F6E743E003C71
:100650002F74643E3C2F74723E3C2F7461626C6553
:100660003E004475726565203A203C2F74643E3C20
:1006700074643E003C2F74643E3C2F74723E3C74A4
:10068000723E3C74643E00446570617274203A208E
:100690003C2F74643E3C74643E003C7461626C6543
:1006A0003E3C74723E3C74643E003C666F6E742047
:1006B00073697A653D343E003C2F666F6E743E0070
:1006C0003C6272202F3E004F4646004F4E00526F54
:1006D000626F74203A20003C666F6E742073697AF2
:1006E000653D353E003C6272202F3E003C62722028
:1006F0002F3E003C2F666F6E743E003C2F74643EAC
:100700003C2F74723E3C2F7461626C653E005465F0
:100710006D7073204F4641203A203C2F74643E3C5C
:1007200074643E003C2F74643E3C2F74723E3C74F3
:10073000723E3C74643E0051746520486562646F8B
:10074000203A203C2F74643E3C74643E003C2F747D
:10075000643E3C2F74723E3C74723E3C74643E00B6
:100760002500526174696F203A203C2F74643E3C2E
:1007700074643E003C2F74643E3C2F74723E3C74A3
:10078000723E3C74643E00546F6666203A203C2FF3
:1007900074643E3C74643E003C2F74643E3C2F7491
:1007A000723E3C74723E3C74643E00546F6E203A5C
:1007B000203C2F74643E3C74643E003C7461626C67
:1007C000653E3C74723E3C74643E003C666F6E74E1
:1007D0002073697A653D343E003C2F666F6E743E2F
:1007E000003C6272202F3E004F4646004F4E0049AB
:1007F0006E6A656374696F6E205068203A20003C11
:10080000666F6E742073697A653D353E003C627296
:10081000202F3E003C6272202F3E003C2F666F6E00
:10082000743E003C2F74643E3C2F74723E3C2F7427
:1008300061626C653E0054656D7073204F464120C7
:100840003A203C2F74643E3C74643E003C2F746438
:100850003E3C2F74723E3C74723E3C74643E0051C8
:10086000746520486562646F203A203C2F74643EB2
:100870003C74643E003C2F74643E3C2F74723E3CDA
:1008800074723E3C74643E002500526174696F20AE
:100890003A203C2F74643E3C74643E003C2F7464E8
:1008A0003E3C2F74723E3C74723E3C74643E005475
:1008B0006F6666203A203C2F74643E3C74643E00B0
:1008C0003C2F74643E3C2F74723E3C74723E3C7408
:1008D000643E00546F6E203A203C2F74643E3C749A
:1008E000643E003C7461626C653E3C74723E3C74D4
:1008F000643E003C666F6E742073697A653D343ED9
:10090000003C2F666F6E743E003C6272202F3E00EA
:100910004F4646004F4E00496E6A656374696F6EBC
:100920002043686C6F7265203A20003C666F6E74DD
:100930002073697A653D353E003C6272202F3E008F
:100940003C2F666F6E743E003C2F74643E3C2F74E7
:10095000723E3C2F7461626C653E00447572656541
:10096000203A203C2F74643E3C74643E003C2F745B
:10097000643E3C2F74723E3C74723E3C74643E0094
:10098000446570617274203A203C2F74643E3C745C
:10099000643E003C7461626C653E3C74723E3C7423
:1009A000643E003C666F6E742073697A653D343E28
:1009B000003C2F666F6E743E003C6272202F3E003A
:1009C0004F4646004F4E0046696C74726174696F01
:1009D0006E203A20003C666F6E742073697A653D24
:1009E000353E003C2F666F6E743E003C6272202FD5
:1009F0003E003C2F74643E3C2F74723E3C2F746169
:100A0000626C653E003C74723E3C74643E5072659C
:100A10007373696F6E2046696C7472652028424159
:100A200052293A203C2F74643E3C74643E003C2FB3
:100A300074643E3C2F74723E003C74723E3C74649D
:100A40003E54656D7065726174757265205379737B
:100A500074656D653A203C2F74643E3C74643E00BE
:100A60003C2F74643E3C2F74723E003C74723E3CDA
:100A700074643E4170706172656E7420706F77654A
:100A8000723A203C2F74643E3C74643E003C2F74E8
:100A9000643E3C2F74723E003C74723E3C74643E73
:100AA00049726D733A203C2F74643E3C74643E007E
:100AB0003C2F74643E3C2F74723E003C74723E3C8A
:100AC00074643E48756D6964697465204578743A4C
:100AD000203C2F74643E3C74643E003C2F74643EA2
:100AE0003C2F74723E003C74723E3C74643E54650C
:100AF0006D7065726174757265204578743A203C3A
:100B00002F74643E3C74643E003C2F74643E3C2F62
:100B100074723E003C74723E3C74643E54656D7069
:100B200065726174757265204561753A203C2F7459
:100B3000643E3C74643E003C2F74643E3C2F7472EF
:100B40003E003C74723E3C74643E56616C65757246
:100B50002043686C6F7265203A203C2F74643E3CE1
:100B600074643E003C2F74643E3C2F74723E003C23
:100B700074643E56616C657572205068203A203C62
:100B80002F74643E3C74643E003C7461626C65206A
:100B9000626F726465723D313E3C74723E003C6629
:100BA0006F6E742073697A653D343E003C6272203A
:100BB0002F3E003C6272202F3E00457272657572B6
:100BC000200044696D616E636865200053616D6546
:100BD0006469200056656E647265646920004A6528
:100BE00075646920004D6572637265646920004D0B
:100BF0006172646920004C756E646920003C666F08
:100C00006E742073697A653D353E003C2F666F6EC9
:100C1000743E003C6272202F3E002A2A2A2A2A2A89
:100C20002A2A2A2A2A2A2A2A003C6272202F3E00D7
:100C3000202A00202D2052C3A9766973696F6E2087
:100C40003A2020002A20446F6D6F67617264656EE0
:100C500020003C6272202F3E002A2A2A2A2A2A2AB1
:100C60002A2A2A2A2A2A2A003C666F6E742073696F
:100C70007A653D373E003C68746D6C3E3C73747918
:100C80006C653E7461626C652C2074682C20746401
:100C9000207B626F726465723A2031707820736FC6
:100CA0006C696420626C61636B3B20626F72646587
:100CB000722D636F6C6C617073653A636F6C6C61FD
:100CC0007073653B7D3C2F7374796C653E003C21ED
:100CD000444F43545950452048544D4C3E005265B2
:100CE00066726573683A203500436F6E6E65637493
:100CF000696F6E3A20636C6F736500436F6E746545
:100D00006E742D547970653A20746578742F687408
:100D10006D6C00485454502F312E31203230302029
:100D20004F4B00001D64B77C11241FBECFEFD1E2F2
:100D3000DEBFCDBF00E00CBF1BE0A0E0B2E0ECE7FF
:100D4000FAE001E00BBF02C007900D92AE31B1078F
:100D5000D9F729E1AEE1BBE001C01D92A235B2078F
:100D6000E1F716E0C3E9D6E000E006C021970109EB
:100D7000802FFE010E94BC82C239D10780E00807A3
:100D8000A9F70E94E4750C942D853AC92F923F92E1
:100D90004F925F926F927F928F929F92AF92BF928B
:100DA000CF92DF92EF92FF920F931F93CF93DF9337
:100DB000CDB7DEB7C658D1090FB6F894DEBF0FBE67
:100DC000CDBF2DB73EB7CB57DF4F39832883C558EA
:100DD000D0400E94DC466B017C010E94DC46C35877
:100DE000DF4F688379838A839B83CD57D04080917E
:100DF0002B1590912C15A0912D15B0912E15B701A2
:100E0000A601481B590B6A0B7B0BDB01CA01883E0C
:100E10009340A105B10510F40C946414C0922B15F5
:100E2000D0922C15E0922D15F0922E158EE30E9493
:100E30006046BC01990F880B990B0E94A77F6093B5
:100E40002715709328158093291590932A152091C2
:100E5000A1153091A2154091A3155091A4150E949F
:100E6000068020919D1530919E1540919F155091BF
:100E7000A0150E9441816B017C0120E030E0A901B6
:100E80000E94A17F87FD09C0C0921819D09219193C
:100E9000E0921A19F0921B1908C0109218191092BA
:100EA000191910921A1910921B1920E030E040E62F
:100EB00051E4609118197091191980911A19909143
:100EC0001B190E943E82181664F480E090E0A0E6B0
:100ED000B1E48093181990931919A0931A19B0933B
:100EE0001B198091BF0D65E00E949D82911106C083
:100EF0008091BE0D882311F40C9484178FE30E9417
:100F00006046BC01990F880B990B0E94A77F20E0D7
:100F100030E44CE955E40E94068020E030EC4FE7D5
:100F200054E40E94A58120E030E04AE754E40E94A6
:100F3000A5819B01AC0160932315709324158093C8
:100F400025159093261560E070E080E290E40E9401
:100F500040812AE63CEB44E85FE30E94A58120E063
:100F600030E04AE754E40E9406806B017C018091E6
:100F7000A9159091AA158A5F9109BC0180E090E0C3
:100F80000E94A57F9B01AC01C701B6010E9441816F
:100F90006B017C016093BE187093BF188093C018DA
:100FA0009093C1182091D8023091D9028091D60235
:100FB0009091D702AC0197FF02C04F5F5F4F5595EC
:100FC0004795B901641B750B7093BB026093BA021D
:100FD00097FD019695958795820F931F9093B9027F
:100FE0008093B8028091BF0D65E00E949D829111AF
:100FF00006C08091BE0D882311F40C94BC1781E0CB
:1010000080938C1888E68093AD181092B70C1092DC
:10101000B60C60E08AEB9CE00E94DA1F0E94F53774
:1010200087E090E00E9488548AEB9CE00E948F1F2A
:10103000982F92959F708F707AE0979F800D112462
:101040008093BE0D8AEB9CE00E948F1F982F929593
:101050009F708F70AAE09A9F800D11248093BF0D1E
:101060008AEB9CE00E948F1F982F969596959695F7
:101070009670292F220F220F920F8F70890F809365
:10108000C00D8AEB9CE00E948F1F982F92959F7055
:101090008F70BAE09B9F800D11248093C40D8AEB62
:1010A0009CE00E948F1F982F92959F708F70EAE0AE
:1010B0009E9F800D11248093C10D8AEB9CE00E94BD
:1010C0008F1F982F92959F708F70FAE09F9F800DD1
:1010D00011248093C20D8AEB9CE00E948F1F982FF1
:1010E00092959F708F702AE0929F800D11248093BB
:1010F000C30D8091541690915516892B09F058C252
:1011000066E5E62E66E1F62E7AE0D72ED701ED2DC4
:101110001D92EA95E9F76091141970911519809163
:10112000161990911719870121E045E00E94BB7CB8
:10113000B70183E194E10E943124D701ED2D1D9286
:10114000EA95E9F7609110197091111980911219BF
:101150009091131922E045E00E94BB7CB7018FEE0D
:1011600093E10E943124D7011D92DA94E9F760914E
:1011700018197091191980911A1990911B1921E071
:1011800045E00E94BB7CB7018FE794E10E943124C7
:101190006091BE187091BF188091C0189091C118CD
:1011A0000E941282AB01BC0183EE93E10E94A42451
:1011B0004091BA025091BB02052E000C660B770BD2
:1011C00087ED93E10E94A4244091B8025091B902A6
:1011D000052E000C660B770B8BEC93E10E94A42488
:1011E00040910A1950910B19052E000C660B770BD4
:1011F0008FEB93E10E94A42460918B1570918C1564
:1012000080918D1590918E150E941282AB01BC01C8
:1012100083EB93E10E94A424C090BE18D090BF1825
:10122000E090C018F090C1186091BA027091BB02B2
:10123000072E000C880B990B0E94A77F9B01AC0125
:10124000C701B6010E94A17F87FF03C063E877E072
:1012500017C08091B8029091B902BC01990F880B18
:10126000990B0E94A77F9B01AC01C701B6010E94A8
:101270003E8218161CF463E977E002C064EA77E066
:1012800087E094E10E9431246091C6027091C70208
:101290008091C8029091C90206E516E121E043E081
:1012A0000E94BB7CB8018BEF93E10E9431248AE05D
:1012B000D8011D928A95E9F78091C00D8093FF14A3
:1012C0004AE0B80190E00E94017DB8018AE496E10D
:1012D0000E940E85892B51F0B80187E694E10E94A7
:1012E0003124B8018AE496E10E9417858AE0E6E598
:1012F000F6E1DF01282F1D922A95E9F7E5EFF4E1E9
:10130000DF011D928A95E9F78091BF0D8093FF144C
:101310004AE0BF0190E00E94017D8091BF0D8A30BC
:1013200030F46DE179E086E596E10E94038565EF92
:1013300074E186E596E10E94038566E576E180E446
:1013400096E10E940E85892B61F066E576E18BE5DA
:1013500094E10E94312466E576E180E496E10E9402
:1013600017858AE0E6E5F6E1DF01282F1D922A9530
:10137000E9F7E5EFF4E1DF011D928A95E9F7809145
:10138000BE0D8093FF144AE0BF0190E00E94017DF2
:101390008091FF148A30E8F46DE179E086E596E10A
:1013A0000E94178565EF74E186E596E10E9403854A
:1013B0006BEE74E186E596E10E940E85892BE9F0DB
:1013C00066E576E18FE494E10E94312466E576E1FA
:1013D00010C06BEE74E185EF94E10E940E85892BBD
:1013E00061F065EF74E18FE494E10E94312465EFD0
:1013F00074E18BEE94E10E941785E091C40D8E2F6D
:1014000090E0FC013197E730F105D8F48827EE58D9
:10141000FF4F8F4F0C94BC8262EB77E014C068EBF7
:1014200077E011C06EEB77E00EC067EC77E00BC0A1
:101430006DEC77E008C066ED77E005C06DED77E014
:1014400002C066EE77E086E596E10E94178566E5C4
:1014500076E18CE296E10E940E85892B61F066E5CB
:1014600076E187E394E10E94312466E576E18CE23F
:1014700096E10E941785E091C20D8E2F90E0FC014D
:101480003197EC30F10550F58827E758FF4F8F4F23
:101490000C94BC826BEE77E023C060EF77E020C055
:1014A00065EF77E01DC06AEF77E01AC06FEF77E075
:1014B00017C064E078E014C069E078E011C06EE025
:1014C00078E00EC063E178E00BC068E178E008C026
:1014D0006DE178E005C062E278E002C066EE77E098
:1014E00086E596E10E94178566E576E182E296E15F
:1014F0000E940E85892B61F066E576E18BE294E12E
:101500000E94312466E576E182E296E10E94178529
:101510008AE0E6E5F6E1DF011D928A95E9F7809120
:10152000C10D8093FF144AE0BF0190E00E94017D4D
:1015300066E576E186E396E10E940E85892B61F0EF
:1015400066E576E183E494E10E94312466E576E184
:1015500086E396E10E9417858AE0E6E5F6E1DF0181
:10156000282F1D922A95E9F7E5EFF4E1DF011D929E
:101570008A95E9F78091C30D8093FF144AE066E5F0
:1015800076E190E00E94017D66E576E188E196E1F2
:101590000E940E85892B61F066E576E18FE194E18A
:1015A0000E94312466E576E188E196E10E94178584
:1015B0008091541690915516029709F0C4C060911D
:1015C000141670911516809116169091171606E54F
:1015D00016E121E045E00E94BB7C609114167091F9
:1015E000151680911616909117160E941282AB0163
:1015F000BC0187E292E10E94A4248AE0D8011D92F6
:101600008A95E9F78091C00D8093FF144AE0B801F4
:1016100090E00E94017DB8018AE496E10E940E8567
:10162000892B51F0B8018BE192E10E943124B8017D
:101630008AE496E10E9417858AE0E6E5F6E1DF019B
:10164000282F1D922A95E9F7E5EFF4E1DF011D92BD
:101650008A95E9F78091BF0D8093FF144AE0BF019E
:1016600090E00E94017D8091BF0D8A3030F46DE1E1
:1016700079E086E596E10E94038565EF74E186E5F1
:1016800096E10E94038566E576E180E496E10E949A
:101690000E85892B61F066E576E18FE092E10E948C
:1016A000312466E576E180E496E10E9417858AE0C0
:1016B000E6E5F6E1DF01282F1D922A95E9F7E5EF2F
:1016C000F4E1DF011D928A95E9F78091BE0D8093C8
:1016D000FF144AE0BF0190E00E94017D8091FF1459
:1016E0008A30E8F46DE179E086E596E10E9417859D
:1016F00065EF74E186E596E10E9403856BEE74E187
:1017000086E596E10E940E85892BE9F066E576E193
:1017100083E092E10E94312466E576E110C06BEE31
:1017200074E185EF94E10E940E85892B61F065EFED
:1017300074E183E092E10E94312465EF74E18BEE65
:1017400094E10E9417858091541690915516039745
:1017500009F0D5C080911415909115158F3FBFEFFA
:101760009B07E1F0892BD1F42091D2023091D30272
:101770004091D4025091D5026091141970911519BD
:1017800080911619909117190E94A17F18161CF0CC
:1017900067E278E005C06AE278E002C06EE278E0D5
:1017A00087E991E10E9431248AE0E6E5F6E1DF0174
:1017B0001D928A95E9F78091C00D8093FF144AE04D
:1017C000BF0190E00E94017D66E576E18AE496E142
:1017D0000E940E85892B61F066E576E18BEB91E145
:1017E0000E94312466E576E18AE496E10E9417853D
:1017F0008AE0E6E5F6E1DF01282F1D922A95E9F758
:10180000E5EFF4E1DF011D928A95E9F78091BF0DC4
:101810008093FF144AE0BF0190E00E94017D809117
:10182000BF0D8A3030F46DE179E086E596E10E94E3
:10183000038565EF74E186E596E10E94038566E520
:1018400076E180E496E10E940E85892B61F066E5E1
:1018500076E18FEA91E10E94312466E576E180E449
:1018600096E10E9417858AE0E6E5F6E1DF01282F80
:101870001D922A95E9F7E5EFF4E1DF011D928A95C3
:10188000E9F78091BE0D8093FF144AE0BF0190E01C
:101890000E94017D8091FF148A30E8F46DE179E0C7
:1018A00086E596E10E94178565EF74E186E596E18D
:1018B0000E9403856BEE74E186E596E10E940E8539
:1018C000892BE9F066E576E183EA91E10E94312413
:1018D00066E576E110C06BEE74E185EF94E10E945D
:1018E0000E85892B61F065EF74E183EA91E10E9436
:1018F000312465EF74E18BEE94E10E9417858091AD
:10190000541690915516069759F48EE30E9460463E
:10191000AC01990F660B770B8BE390E10E94A42436
:101920008091541690915516099709F008C140917D
:10193000061950910719052E000C660B770B83EFE3
:101940009FE00E94A4244091041950910519052E8E
:10195000000C660B770B87EE9FE00E94A424409159
:10196000971550919815052E000C660B770B8BED93
:101970009FE00E94A4244091021950910319052E62
:10198000000C660B770B8FEC9FE00E94A4248091E3
:101990000F15882319F067E278E002C06AE278E068
:1019A0008FE99FE00E94312460918F15709190150E
:1019B000809191159091921506E516E122E043E0A1
:1019C0000E94BB7CB80183E99FE00E943124809192
:1019D000C818882319F063E378E002C061EE78E06C
:1019E00087E89FE00E9431248AE0E6E5F6E1DF0126
:1019F0001D928A95E9F78091C00D8093FF144AE00B
:101A0000BF0190E00E94017D66E576E18AE496E1FF
:101A10000E940E85892B61F066E576E183EC9FE0FC
:101A20000E94312466E576E18AE496E10E941785FA
:101A30008AE0E6E5F6E1DF01282F1D922A95E9F715
:101A4000E5EFF4E1DF011D928A95E9F78091BF0D82
:101A50008093FF144AE0BF0190E00E94017D8091D5
:101A6000BF0D8A3030F46DE179E086E596E10E94A1
:101A7000038565EF74E186E596E10E94038566E5DE
:101A800076E180E496E10E940E85892B61F066E59F
:101A900076E187EB9FE00E94312466E576E180E401
:101AA00096E10E9417858AE0E6E5F6E1DF01282F3E
:101AB0001D922A95E9F7E5EFF4E1DF011D928A9581
:101AC000E9F78091BE0D8093FF144AE0BF0190E0DA
:101AD0000E94017D8091FF148A30E8F46DE179E085
:101AE00086E596E10E94178565EF74E186E596E14B
:101AF0000E9403856BEE74E186E596E10E940E85F7
:101B0000892BE9F066E576E18BEA9FE00E943124BB
:101B100066E576E110C06BEE74E185EF94E10E941A
:101B20000E85892B61F065EF74E18BEA9FE00E94DE
:101B3000312465EF74E18BEE94E10E94178580916A
:101B40005416909155160B9709F008C14091FF1853
:101B500050910019052E000C660B770B8BEE9EE062
:101B60000E94A4244091FD185091FE18052E000CEF
:101B7000660B770B8FED9EE00E94A4244091951593
:101B800050919615052E000C660B770B83ED9EE0A9
:101B90000E94A4244091FB185091FC18052E000CC3
:101BA000660B770B87EC9EE00E94A42480910E15B3
:101BB000882319F067E278E002C06AE278E087E9FA
:101BC0009EE00E9431246091081670910916809160
:101BD0000A1690910B1606E516E122E043E00E94FA
:101BE000BB7CB8018BE89EE00E94312480910C16EA
:101BF000882319F063E378E002C061EE78E08FE7B4
:101C00009EE00E9431248AE0E6E5F6E1DF011D92C4
:101C10008A95E9F78091C00D8093FF144AE0BF01D7
:101C200090E00E94017D66E576E18AE496E10E94FB
:101C30000E85892B61F066E576E18BEB9EE00E94D4
:101C4000312466E576E18AE496E10E9417858AE010
:101C5000E6E5F6E1DF01282F1D922A95E9F7E5EF89
:101C6000F4E1DF011D928A95E9F78091BF0D809321
:101C7000FF144AE0BF0190E00E94017D8091BF0DFA
:101C80008A3030F46DE179E086E596E10E940385C3
:101C900065EF74E186E596E10E94038566E576E1ED
:101CA00080E496E10E940E85892B61F066E576E17D
:101CB0008FEA9EE00E94312466E576E180E496E1B9
:101CC0000E9417858AE0E6E5F6E1DF01282F1D92E4
:101CD0002A95E9F7E5EFF4E1DF011D928A95E9F72E
:101CE0008091BE0D8093FF144AE0BF0190E00E94F6
:101CF000017D8091FF148A30E8F46DE179E086E59A
:101D000096E10E94178565EF74E186E596E10E94F1
:101D100003856BEE74E186E596E10E940E85892BC2
:101D2000E9F066E576E183EA9EE00E94312466E50B
:101D300076E110C06BEE74E185EF94E10E940E85B0
:101D4000892B61F065EF74E183EA9EE00E94312403
:101D500065EF74E18BEE94E10E9417858091541633
:101D6000909155160D9709F0ABC08AE0E6E5F6E1D3
:101D7000DF011D928A95E9F78091C00D8093FF14D1
:101D80004AE0BF0190E00E94017D66E576E18AE4C9
:101D900096E10E940E85892B61F066E576E183EE7F
:101DA0009DE00E94312466E576E18AE496E10E9496
:101DB00017858AE0E6E5F6E1DF01282F1D922A95D6
:101DC000E9F7E5EFF4E1DF011D928A95E9F78091EB
:101DD000BF0D8093FF144AE0BF0190E00E94017D97
:101DE0008091BF0D8A3030F46DE179E086E596E1AF
:101DF0000E94038565EF74E186E596E10E94038504
:101E000066E576E180E496E10E940E85892B61F01B
:101E100066E576E187ED9DE00E94312466E576E196
:101E200080E496E10E9417858AE0E6E5F6E1DF01AD
:101E3000282F1D922A95E9F7E5EFF4E1DF011D92C5
:101E40008A95E9F78091BE0D8093FF144AE0BF01A7
:101E500090E00E94017D8091FF148A30E8F46DE1EA
:101E600079E086E596E10E94178565EF74E186E5E5
:101E700096E10E9403856BEE74E186E596E10E948F
:101E80000E85892BE9F066E576E18BEC9DE00E94FA
:101E9000312466E576E110C06BEE74E185EF94E1E4
:101EA0000E940E85892B61F065EF74E18BEC9DE05B
:101EB0000E94312465EF74E18BEE94E10E94178556
:101EC0000E940E39882319F181E40E9460468B3507
:101ED0009105E8F5C12CD12C56EBE52E52E4F52EF8
:101EE00042C06DE273E08BEB9BE00E949D590E9423
:101EF000463B882389F063E273E08BEB9BE00E9412
:101F0000C1596EE073E08BEB9BE00E94C1590E94C7
:101F10000E39882331F3D8CF62E073E08BEB9BE07E
:101F20000E949D596091820D7091830D8BEB9BE017
:101F30000E94F5396AEE72E08BEB9BE00E94C1597A
:101F400068E873E180E090E00E94A446E0CFBC0125
:101F50008A39934010F069E973E080E090E00E94D4
:101F6000A57F6B017C018091BF0D65E00E949D8281
:101F7000911106C08091BE0D882311F40C94EE17C8
:101F80008EE580937C0080917B00877F80937B002F
:101F900062E070E080E090E00E94A44680917A00C8
:101FA000806480937A0080917A0086FDFCCF8091D6
:101FB00078002091790030E0322F2227A901330FD9
:101FC000660B770B9A01AB01282B60E070E381E18F
:101FD00090E00E94E98069017A0108EC15E08091A7
:101FE00045150E9460469093561580935515BC0187
:101FF000990F880B990B0E94A77F4B015C014090C1
:102000006715509068156090691570906A15A30166
:1020100092010E94408120E030E040E85AE30E94B3
:1020200006809B01AC01C301B2010E9441819B016A
:10203000AC01609367157093681580936915909350
:102040006A15C501B4010E94408160935F157093C9
:10205000601580936115909362159B01AC010E94FD
:102060000680609377157093781580937915909317
:102070007A1520917B1530917C1540917D155091FA
:102080007E150E94418160937B1570937C1580932F
:102090007D1590937E150150110909F0A0CF20E025
:1020A00030E049EB54E40E94A5810E9446824B0136
:1020B0005C01B601DD0C880B990B0E94A77F20E024
:1020C00030E04AE754E40E94A58120E030E040E897
:1020D0005AE30E94068020914B1530914C15409197
:1020E0004D1550914E150E940680A50194010E9445
:1020F000068060933F15709340158093411590932F
:10210000421510927B1510927C1510927D1510923D
:102110007E1560930C1970930D1980930E1990938E
:102120000F1920E030E046E653E40E9406806B0180
:102130007C01609314167093151680931616909375
:1021400017168091BF0D65E00E949D82911105C018
:102150008091BE0D882309F493C7E4EEF2E0F49079
:10216000EEE9F2E0E491F0E0EE0FFF1FEC5BFD4FD3
:102170000591149110921E1510921F1510922015A2
:10218000109221151092221561E080E40E942446ED
:1021900060E080E40E94A74561E070E080E090E0AC
:1021A0000E94A44661E080E40E94A7458BE990E08C
:1021B0000197F1F760E080E40E94244620E931E0D5
:1021C000F80180818F2121F421503109C9F793C78B
:1021D00020E931E0D8018C918F2121F02150310983
:1021E000C9F789C7B8E2DB2E80E8E82EC12C20E9C8
:1021F00031E0F80180818F2121F421503109C9F7A4
:102200007AC70E947F464B015C0180E991E0D801CA
:102210002C912F2119F00197D1F76DC70E947F46AD
:10222000DC01CB0188199909AA09BB098997A10585
:10223000B10538F0EC2DF0E0EA5EFA4E80858E298B
:1022400080878E2D90E095958795009711F0E82E68
:1022500003C0C394F0E8EF2EDA94D110C8CF61E048
:1022600080E40E94244661E080E40E94A745F0904B
:102270001F15E0901E156F2D70E07E2980E090E024
:102280000E94A57F2DEC3CEC4CEC5DE30E940680A7
:102290006093161570931715809318159093191560
:1022A0000091211510912015812F8F77602F70E0FC
:1022B000782B80E090E00E94A57F2DEC3CEC4CEC6C
:1022C0005DE30E94068017FD09C060931A157093A4
:1022D0001B1580931C1590931D150BC0DC01CB01C1
:1022E000B05880931A1590931B15A0931C15B093AA
:1022F0001D15FE0C0F0D100F81E090E020912215AE
:10230000211302C080E090E091958195910990930E
:1023100015158093141580911A1590911B15A09195
:102320001C15B0911D158093141990931519A09345
:102330001619B093171900911615109117152091C1
:102340001815309119150093101910931119209335
:102350001219309313198091BF0D65E00E949D8280
:10236000911181C08091BE0D81117DC0C901B8015C
:102370000E940D826E3171050CF4DAC69B012E515C
:1023800031092031310508F4CDC66D5271096A3129
:10239000710508F4CAC663E070E04AE0CE01845AD1
:1023A0009F4F0E94D357409110195091111960917D
:1023B00012197091131922E0CE01CF960E94A457F2
:1023C00040911419509115196091161970911719AF
:1023D00022E0CE0182960E94A45767EE79E0CE01FA
:1023E00001960E940658BE016E5D7F4FCE01019698
:1023F0000E9456576EE378E00E943F57BE01615C31
:102400007F4F0E9456576EE378E00E943F57BE010F
:10241000645A7F4F0E94565767EE79E00E943F57FB
:10242000BC01CE0189589F4F0E94FE57BE016958DA
:102430007F4F8FE390E00E946133CE0189589F4F18
:102440000E949F57CE0101960E949F57CE0182960F
:102450000E949F57CE01CF960E949F57CE01845A6B
:102460009F4F0E949F570E944F520E94D6516093E7
:102470008B1570938C1580938D1590938E1562EB50
:1024800073E08BEB9BE00E949D5940918B1550911E
:102490008C1560918D1570918E1522E08BEB9BE071
:1024A0000E947C588091BF0D65E00E949D82911131
:1024B00005C08091BE0D882309F43DC62091C00D52
:1024C0004091A815241750F030E08091A71590E0B6
:1024D000840F911D281739070CF4EEC710920919C3
:1024E000809109199091031598135CC62091C00D35
:1024F0004091A615241708F4E3C730E08091A51594
:1025000090E0840F911D281739070CF0D9C760E0BF
:1025100088E20E94A74581E08093FA188091BC026E
:102520009091BD02019709F460C6809114159091B5
:1025300015158F3FBFEF9B0709F478C6009709F088
:102540006CC6C0901419D0901519E0901619F0902F
:1025500017198090D2029090D302A090D402B0902C
:10256000D5022DEC3CEC4CEC5DE3C501B4010E94BE
:1025700040819B01AC01C701B6010E94A17F1816E2
:102580000CF057C62DEC3CEC4CEC5DE3C501B401FE
:102590000E9441819B01AC01C701B6010E943E82AD
:1025A00087FF1092F9188091BF0D65E00E949D820F
:1025B000992309F449C68091C00D813009F44AC6B7
:1025C000309009190091D8021091D902311048C6F3
:1025D000B801110F880B990B0E94A77F9B01AC01DA
:1025E0006091BE187091BF188091C0189091C11869
:1025F0000E943E8290910F1587FD76C6911174C698
:1026000010920819109203191092021980919B15CB
:1026100090919C15009709F497C62091C818211134
:1026200093C6332009F490C620910819222309F497
:102630009CC62091C818211198C6332009F498C669
:1026400060E08AE20E94A74520E030E041E655E4E0
:102650006091C2027091C3028091C4029091C50240
:102660000E94A5819B01AC0160918F15709190151E
:1026700080919115909192150E94418160938F15E0
:102680007093901580939115909392158091C8182E
:10269000882309F472C660E08AE10E94A745109180
:1026A000091911116CC62091C6023091C7024091E0
:1026B000C8025091C902609118197091191980913E
:1026C0001A1990911B190E94A17F90910E1518164E
:1026D0000CF49BC6911199C6109201191092FC1826
:1026E0001092FB188091991590919A15009709F412
:1026F000BCC620910C162111B8C6112309F4B5C629
:1027000020910119222309F4C1C620910C16211130
:10271000BDC6112309F4BDC660E084E20E94A7454E
:1027200020E030E041E655E46091BE027091BF02C6
:102730008091C0029091C1020E94A5819B01AC01D1
:10274000609108167091091680910A1690910B16E7
:102750000E944181609308167093091680930A16AF
:1027600090930B1680910C16882309F497C660E0AD
:102770008AE10E94A74581E080938C1888E68093C7
:10278000AD181092B70C1092B60C61E18AEB9CE088
:102790000E94DA1F0E94F53782E090E00E94885480
:1027A0008AEB9CE00E948F1F182F8AEB9CE00E940E
:1027B0008F1F082FE6E015950795EA95E1F789E167
:1027C000809FB001819F700D1124072E000C880B93
:1027D000990B24E630E040E050E00E94E980890156
:1027E0009A0110930B1900930A198091BF0D65E0AF
:1027F0000E949D82992309F453C680919715909168
:102800009815892B19F481E08093C8186091D8023B
:102810007091D902072E000C880B990B0E94A77F9C
:102820009B01AC016091BE187091BF188091C018D7
:102830009091C1180E943E8287FD06C080EF90E013
:102840009093981580939715809195159091961572
:10285000892B19F481E080930C162091C6023091E7
:10286000C7024091C8025091C90260911819709135
:10287000191980911A1990911B190E94A17F18169D
:1028800034F080EF90E090939615809395158091A9
:102890000919882309F40AC660E08DE10E94A74562
:1028A00087E498E00E9480528CE698E00E94805273
:1028B00080E998E00E94805283EA98E00E9480526A
:1028C00087EB98E00E94805280911015909111152D
:1028D000A0911215B0911315C358DF4F288139818B
:1028E0004A815B81CD57D040281B390B4A0B5B0BCB
:1028F000DA01C90180369A4EA105B10508F46EC10E
:10290000C358DF4F488159816A817B81CD57D040C0
:102910004093101550931115609312157093131571
:1029200080919315909194150197909394158093AD
:102930009315892B09F012C164E97CE0CE01019660
:102940000E94461DBE016F5F7F4FCE01CF960E9451
:10295000461D1DA21CA288E193E09BA38AA31FA28F
:1029600025968FAD2597811116C0A0961FAE1EAE7D
:10297000A09788EE93E0A0E0B0E0A4968CAF9DAF66
:10298000AEAFBFAFA497E7961FAE1EAEE797A9966E
:102990001FAEA99735C0825023E14CEC58E082303D
:1029A00048F464E97CE0CE0182960E949140811156
:1029B0000EC0DBCFBE01615C7F4FCE0182960E94CC
:1029C0009140882391F2CE01CF960E9446424DA9B4
:1029D0005EA96FA978ADCE0182960E94F63EBE0137
:1029E0006E5D7F4FCE0101960E94461D4CEC58E073
:1029F000BE016F5F7F4FCE01845A9F4F0E94971D8B
:102A0000A0968EAD9FADA0979093A60D8093A50D37
:102A1000A4968CAD9DADAEADBFADA4978093A70D30
:102A20009093A80DA093A90DB093AA0DA8968CAD74
:102A30009DADAEADBFADA8978093AB0D9093AC0D9F
:102A4000A093AD0DB093AE0D8DE0ECE5F0E0EC0F92
:102A5000FD1F3C96AFEABDE001900D928A95E1F72B
:102A6000E796EEADFFADE797F093BD0DE093BC0D9B
:102A7000309709F46DC08581882309F469C064EA40
:102A800073E08BEB9BE00E94C1594091C00D50E078
:102A900060E070E02AE083EA9DE00E941A5866ED4B
:102AA00078E083EA9DE00E949C598091BF0D1AE076
:102AB000612F0E949D82682F70E083EA9DE00E9452
:102AC000F5398091BF0D612F0E949D82692F70E0C2
:102AD00083EA9DE00E942B3A64ED78E083EA9DE072
:102AE0000E949C59409118195091191960911A1916
:102AF00070911B1983EA9DE00E94603A68ED78E0CE
:102B000083EA9DE00E949C594091BE185091BF18E5
:102B10006091C0187091C11883EA9DE00E94603AEC
:102B20006FED78E083EA9DE00E9465588091BC0DCE
:102B30009091BD0D009761F00E9446428091BC0DBE
:102B40009091BD0D0E946D831092BD0D1092BC0D31
:102B50008AE090E0909394158093931580910F15DF
:102B6000882349F08091971590919815019790933B
:102B70009815809397158091971590919815181630
:102B8000190624F0109298151092971580910E1541
:102B9000882349F08091951590919615019790930F
:102BA0009615809395158091951590919615181608
:102BB000190624F010929615109295158091091916
:102BC000882361F00E944F520E94D65160938B156A
:102BD00070938C1580938D1590938E150E94755A65
:102BE0008EE19BE00E94AB55181619060CF04AC006
:102BF0006AE070E080E090E00E94A4468EE19BE0F5
:102C00000E948955182F853659F78EE19BE00E9466
:102C1000AB5506972CF31093041505E015E18EE1F2
:102C20009BE00E948955D8018D938D01B5E10B3051
:102C30001B07A9F710920B15809108158F3F81F69D
:102C4000809109158F3F61F680910A158F3F41F6FB
:102C5000C0900715D12CE12CF12C80910615909194
:102C60000515E0E0F2E0019111910115110509F45B
:102C7000B7CFD8012C912913F6CF11962C91281398
:102C8000F2CFECC50E940E39882309F456C60E9483
:102C9000DC466B017C0180916F0D9091700DA091CD
:102CA000710DB091720DA7019601281B390B4A0BCB
:102CB0005B0BDA01C90189399A43A105B105A8F472
:102CC00080916B0D90916C0DA0916D0DB0916E0D7A
:102CD000B701A601481B590B6A0B7B0BDB01CA012C
:102CE00089399A43A105B105C8F12091730D8091EE
:102CF000E70C9091E80C222371F02CEF3FEF30931A
:102D0000830D2093820DDC01ED91FC910488F589FF
:102D1000E02D199512C620EC2093E90C1092EA0CD4
:102D2000DC01ED91FC910280F381E02D42E050E066
:102D300069EE7CE01995C0926B0DD0926C0DE0921B
:102D40006D0DF0926E0DC0926F0DD092700DE092ED
:102D5000710DF092720D81E08093730D8091E70CFC
:102D60009091E80CDC01ED91FC910084F185E02D5F
:102D70001995892B09F4E1C5CE0101960E94733A99
:102D80005C01892B09F4D9C5C0926F0DD092700DEA
:102D9000E092710DF092720D1091E90C812F807FFD
:102DA000803309F094C02090740D3090750D21147B
:102DB000310409F4C2C56DB67EB6A981B0E0CD017B
:102DC0008951934FFC018380912C982C8824848115
:102DD000880E911CC40101962DB73EB7281B390BF4
:102DE0000FB6F8943EBF0FBE2DBF8DB79EB70196AC
:102DF000BC0120E030E02815390569F0A9014A0F2F
:102E00005B1F4951534FFA014581FB014193BF01BB
:102E10002F5F3F4FF0CFAC01420F531FFA011082DA
:102E20001670512EF2E01F133DC089010A0F1B1FBF
:102E3000B8016951734FFB01458150E0542F44277D
:102E400066814A01860E911C4BEF5FEF4A1B5B0BBC
:102E5000421B530B4A0D5B1DB8016251734FF101C8
:102E6000199580E48093E90C5092EA0C9092EB0C57
:102E70008092EC0C8091E70C9091E80CDC01ED91D4
:102E8000FC910280F381E02D44E050E069EE7CE0AB
:102E90001995C0926B0DD0926C0DE0926D0DF09271
:102EA0006E0D0FC04DEF5FEF4A1B5B0B421B530BC8
:102EB0004A0D5B1D2A0F3B1FB9016451734FF1018D
:102EC00019950FB6F8947EBE0FBE6DBE36C5803C18
:102ED000A9F480ED8093E90C1092EA0C8091E70C44
:102EE0009091E80CDC01ED91FC910280F381E02DE2
:102EF00042E050E069EE7CE019951FC5803D09F085
:102F00001CC51092730D19C54091181950911919CB
:102F100060911A1970911B1922E0CE0182960E94CD
:102F2000A45767EE79E0CE0101960E940658BE01D3
:102F30006E5D7F4FCE0101960E94565767EE79E095
:102F40000E943F57BC01CE01CF960E94FE57BE01A2
:102F5000615C7F4F8AEA90E00E946133CE01CF9698
:102F60000E949F57CE0101960E949F57CE018296E4
:102F70000E949F570C947E0722E0B701A601CE0164
:102F800082960E94A45767EE79E0CE0101960E94D6
:102F90000658BE016E5D7F4FCE0101960E945657C6
:102FA00067EE79E00E943F57BC01CE01CF960E94A8
:102FB000FE57BE01615C7F4F8BEA90E00E94613357
:102FC000CE01CF960E949F57CE0101960E949F5737
:102FD000CE0182960E949F570C94FF0720E030E0BC
:102FE00046EB52E4C701B6010E94408120E030E880
:102FF0004FE454E40E94A5812AE939E949E95FE3F5
:103000000E94068027EA39E041E153E40E940680ED
:1030100023E634E34DE85DE30E940680AB01BC018A
:1030200022E0CE0182960E94A45767EE79E0CE019D
:1030300001960E940658BE016E5D7F4FCE0101963B
:103040000E94565767EE79E00E943F57BC01CE01BF
:10305000CF960E94FE57BE01615C7F4F89EA90E0E7
:103060000E946133CE01CF960E949F57CE010196F8
:103070000E949F57CE0182960E949F570C94C00FCA
:103080001BA21AA21DA21CA21FA21EA28E010F5FCC
:103090001F4F22E044E0C701B6010E94BB7CBC0187
:1030A000CE0182960E94755767EE79E0C8010E94B2
:1030B0000658BE016E5D7F4FC8010E94565767EEED
:1030C00079E00E943F57BC01CE01CF960E94FE5787
:1030D000BE01615C7F4F8EE490E00E946133CE01BF
:1030E000CF960E949F57C8010E949F57CE0182969B
:1030F0000E949F5732C880E090ECA9E7B4EC80931F
:10310000161590931715A0931815B0931915809361
:103110001A1590931B15A0931C15B0931D158EEFD7
:103120009FEFF5C860E070E038C961E070E035C934
:1031300062E070E032C940918B1550918C1560911E
:103140008D1570918E1522E0CE0182960E94A457B3
:1031500067EE79E0CE0101960E940658BE016E5DD1
:103160007F4FCE0101960E94565767EE79E00E948C
:103170003F57BC01CE01CF960E94FE57BE01615C55
:103180007F4F80EB90E00E946133CE01CF960E948A
:103190009F57CE0101960E949F57CE0182960E94B2
:1031A0009F578CC9811103C060E478E002C064E4D9
:1031B00078E080E095E10E94178560E075E1CE013E
:1031C00001960E94065844E650E0BE016F5F7F4FB3
:1031D0008CE490E00E94AB33CE0101960E949F5791
:1031E000809109198093031581C980910919882359
:1031F00009F49BC920E030E040E05FE360918B156B
:1032000070918C1580918D1590918E150E9406807D
:103210000E9412826093A71588C9029671F46CE629
:1032200073E08BEB9BE00E94C15903C068E873E038
:1032300006C081E08093F918B6C96BE473E08BEBAC
:103240009BE00E94C159AFC98091BE0D882309F44B
:103250003EC1B1C98091BF0D882309F4A3C1B0C993
:10326000C090BE18D090BF18E090C018F090C11860
:10327000B80166547109072E000C880B990B0E9447
:10328000A77F4B015C019B01AC01C701B6010E9405
:103290003E8287FD90C1B801012E000C880B990B6E
:1032A0000E94A77F9B01AC01C701B6010E94A17FCC
:1032B00087FF81C180910F1581117DC188E790E062
:1032C000909307198093061980EE91E09093051969
:1032D0008093041981E080930F1584E190E090932E
:1032E00003198093021967C1992309F48FC980914A
:1032F0000619909107191816190644F4019790932E
:1033000007198093061981E08093081980910619A6
:1033100090910719892B59F48091041990910519FE
:1033200001979093051980930419109208198091C0
:10333000041990910519181619060CF467C9109212
:103340000F151092081962C91092071910920619E8
:10335000109205191092041910920F151092081965
:1033600010920319109202195FC9029709F465C9F6
:1033700061E08AE20E94A74589C961E08DC9C090D9
:103380001819D0901919E0901A19F0901B19809013
:10339000C6029090C702A090C802B090C9022AE964
:1033A00039E949E15EE3C501B4010E9441812B0185
:1033B0003C019B01AC01C701B6010E94A17F181618
:1033C0000CF485C1A5019401C701B6010E943E829B
:1033D00018160CF07CC180910E15811178C188E718
:1033E00090E0909300198093FF1880EE91E0909305
:1033F000FE188093FD1881E080930E1584E190E023
:103400009093FC188093FB1862C1992309F46AC950
:103410008091FF18909100191816190644F401972D
:10342000909300198093FF1881E080930119809197
:10343000FF1890910019892B59F48091FD189091F3
:10344000FE1801979093FE188093FD1810920119B1
:103450008091FD189091FE18181619060CF442C9B7
:1034600010920E15109201193DC910920019109278
:10347000FF181092FE181092FD1810920E1510925F
:1034800001191092FC181092FB183AC9029709F41E
:1034900040C961E084E20E94A74564C961E068C94F
:1034A0008091BE0D882309F4A8C1A7C98091F9189D
:1034B0008111F2C961E0F1C981E08093091910C856
:1034C00061E088E20E94A7451092FA1827C880910F
:1034D000A71521961FAE1EAE219723961FAE1EAED6
:1034E000239725961FAE1EAE25974AE0BE016F5F5B
:1034F0007F4F90E00E94137DBE016F5F7F4FCE0132
:10350000CF960E9475578091A8151BA21AA21DA2E2
:103510001CA21FA21EA24AE0BE016F5F7F4F90E077
:103520000E94137DBE016F5F7F4FCE0182960E9485
:1035300075576CEE78E0CE0101960E940658BE01E8
:103540006E5D7F4FCE0101960E94565761E079E093
:103550000E943F57BE01615C7F4F0E94565767EE45
:1035600079E00E943F57BC01CE01845A9F4F0E94D0
:10357000FE57BE01645A7F4F89E490E00E94613398
:10358000CE01845A9F4F0E949F57CE0101960E9400
:103590009F57CE0182960E949F57CE01CF960E94E0
:1035A0009F5709C810928F1510929015109291157F
:1035B0001092921505C8B8016C587109072E000CBD
:1035C000880B990B0E94A77F2B013C019B01AC014A
:1035D000C701B6010E943E8287FD1FC0A50194016C
:1035E000C701B6010E94A17F87FF17C080910F1508
:1035F000811113C08CE291E0909307198093061912
:10360000909305198093041981E080930F1582E34C
:1036100090E09093031980930219B801625D7109DB
:10362000072E000C880B990B0E94A77F4B015C01B1
:103630009B01AC01C701B6010E943E8287FD22C0FA
:10364000A3019201C701B6010E94A17F87FF1AC0A2
:1036500080910F1581110C94E81282EC91E0909307
:1036600007198093061986E990E0909305198093D5
:10367000041981E080930F158BE490E09093031977
:1036800080930219A5019401C701B6010E94A17F90
:1036900087FD02C00C94E81280910F1581110C94E3
:1036A000E81288E592E0909307198093061981E06B
:1036B00090E0909305198093041980930F1584E688
:1036C00090E090930319809302190C94E8122AE970
:1036D00039E949E95EE3C501B4010E944181CF5750
:1036E000DF4F688379838A839B83C158D0409B01D5
:1036F000AC01C701B6010E94A17F1816FCF0A3011E
:103700009201C701B6010E943E821816BCF4809156
:103710000E15811113C08CE291E0909300198093F3
:10372000FF189093FE188093FD1881E080930E158A
:1037300082E390E09093FC188093FB1826E636E62F
:1037400046EE5EE3C501B4010E9441814B015C017C
:103750009B01AC01C701B6010E94A17F181644F17C
:10376000CF57DF4F288139814A815B81C158D040D2
:10377000C701B6010E943E821816D4F480910E153E
:1037800081110C94531382EC91E090930019809373
:10379000FF1886E990E09093FE188093FD1881E071
:1037A00080930E158BE490E09093FC188093FB18A7
:1037B000A5019401C701B6010E943E82181614F0BB
:1037C0000C94531380910E1581110C94531388E5BA
:1037D00092E0909300198093FF1881E090E090931D
:1037E000FE188093FD1880930E1584E690E0909368
:1037F000FC188093FB180C9453134AE0B801CE01D7
:1038000082960E94D35767EE79E0CE01CF960E9450
:103810000658BE016E5D7F4FCE01CF960E9456576F
:1038200067EE79E00E943F57BC01CE0101960E94ED
:10383000FE57BE016F5F7F4F8AE690E00E946133C2
:10384000CE0101960E949F57CE01CF960E949F57AE
:10385000CE0182960E949F570C94FD1361EB7AE093
:103860008BEB9BE00E949C592AE0A801012E000CE2
:10387000660B770B8BEB9BE00E941A5866ED78E0A5
:103880008BEB9BE00E949C59F801408150E060E086
:1038900070E02AE08BEB9BE00E941A586EE079E022
:1038A0008BEB9BE00E949C59D80111964C9150E003
:1038B00060E070E02AE08BEB9BE00E941A586EE01B
:1038C00079E08BEB9BE00E949C59F8016281738147
:1038D0006115710511F463EE78E08BEB9BE00E94BB
:1038E0009C596AEE78E08BEB9BE00E946558B1E052
:1038F000CB16D104E104F10469F4D8011496ED91DA
:10390000FC911597309709F46BC916968D919C918F
:10391000179711C0CD28CE28CF2809F061C9D8014A
:103920001896ED91FC911997309709F459C91A9698
:103930008D919C911B97199553C9CB57DF4F2881C7
:103940003981C558D0400FB6F8943EBF0FBE2DBF89
:10395000CA57DF4F0FB6F894DEBF0FBECDBFDF9161
:10396000CF911F910F91FF90EF90DF90CF90BF907C
:10397000AF909F908F907F906F905F904F903F900F
:103980002F900895DC015996ED91FC915A9730974C
:10399000B9F083899489A589B68942855385648560
:1039A0007585841B950BA60BB70B811520E8920734
:1039B000A105B10538F08FEF9FE7A0E0B0E00895D2
:1039C00080E090E00895CF93DF931F92CDB7DEB7EC
:1039D0006983DC01ED91FC910280F381E02D41E0EF
:1039E00050E0BE016F5F7F4F19950F90DF91CF912F
:1039F0000895089580E090E00895FC01818D928DF6
:103A0000009711F00C94B83E0895CF93DF93EC012A
:103A1000898D9A8D009739F481E090E09B838A83A9
:103A200080E090E00BC0FC01138212820E94F143FF
:103A3000E98DFA8D22813381232B71F7DF91CF91AC
:103A400008950F93FC0130E080E092E1AAE7B0E036
:103A5000481759076A077B0740F4B695A7959795CD
:103A600087953F5F3630A1F737E091E09327222317
:103A700011F020E501C020E7892F86950C70082BF6
:103A8000022B0083917091830F910895FC01DB015B
:103A900012968D919C9113979383828388E193E092
:103AA0009183808314968C911497848315968C91BE
:103AB0001597858316964D915D916D917C9119971F
:103AC00046835783608771871A964D915D916D91FA
:103AD0007C911D9742875387648775871E964D9109
:103AE0005D916D917C91519746875787608B718B63
:103AF00052968C915297828B53964D915D916D9118
:103B00007C915697438B548B658B768B57964D9152
:103B10005D916D917C915A97478B508F618F728F19
:103B20005B968D919C915C97948F838F0895EF9213
:103B3000FF920F931F93CF93DF93EC017B018A01D8
:103B40001B821A8288EE93E0A0E0B0E08C839D8314
:103B5000AE83BF8386E793E0998388838DE190E00D
:103B60000E94D8829A8F898F009779F02DE1F70112
:103B7000DC0101900D922A95E1F74CE050E0B8018C
:103B8000CE010C960E941E85188EDF91CF911F9159
:103B90000F91FF90EF9008952F923F924F925F9276
:103BA0006F927F928F929F92AF92BF92CF92DF924D
:103BB000EF92FF920F931F93CF93DF931F921F9269
:103BC000CDB7DEB7FC018581882309F4D8C0848194
:103BD00080FFD5C021E02A8343895489658976898D
:103BE00082859385A485B585481759076A077B07A1
:103BF00009F41A826F013A81832F90E0DE01119659
:103C00004D013F01B6E06B0E711C892B09F47DC09C
:103C1000D6011A964D915D916D917C911D975A0137
:103C2000B1E0BB22F60125811A012B0189E05694EF
:103C30004794379427948A95D1F7838D948D2230B9
:103C400061F4FC01828D938DA48DB58DBC01CD01F5
:103C5000620D731D841D951D45C0DC0114961C91D9
:103C600011501221A114B104D1F4111118C0452B27
:103C7000462B472B51F4F6018789908DA18DB28D8B
:103C800086839783A087B1870AC046815781608564
:103C9000718593010E945E26882309F470C0F601A5
:103CA000238D348D86819781A085B1850297A109E6
:103CB000B109AC01BD01F901058404C0440F551FD1
:103CC000661F771F0A94D2F786859785A089B189E8
:103CD000840F951FA61FB71FBC01CD01610F711D79
:103CE000811D911DD60114962C9126FF14C00091C0
:103CF000DA021091DB022091DC023091DD026017C4
:103D000071078207930749F506C0FA81FF23B9F1CD
:103D1000898190E036C040E0EAD6882381F1F50140
:103D2000EA59F94ED401CF010196E817F90719F0C5
:103D300021912D93FACFEFEF8E1A9E0AF60182851C
:103D40009385A485B5850196A11DB11D82879387B2
:103D5000A487B58780E090E058CF740101E010E0BF
:103D60009501AB01BC0180916618909167180E9483
:103D70000743882321F0BFEF8B1A9B0ADFCF8FEF19
:103D80009FEF0F900F90DF91CF911F910F91FF90B8
:103D9000EF90DF90CF90BF90AF909F908F907F90EB
:103DA0006F905F904F903F902F900895FC01818D10
:103DB000928D009709F0F0CE8FEF9FEF08950F934B
:103DC0001F93CF93DF93FC01818D928D0097B1F00B
:103DD000EF01E2DE8C010F3F8FEF180791F0898D24
:103DE0009A8DFC0142855385648575854150510942
:103DF000610971090E94F63EC80105C080E090E0AB
:103E000002C08FEF9FEFDF91CF911F910F91089527
:103E1000CF93CFB7F8948091B315811127C0E3E910
:103E2000F2E08491E9EDF2E09491E82FF0E0EE0FFA
:103E3000FF1FE15FFA4FA591B491EC91E92321F4C2
:103E400061E085E30E94A74561E085E30E94244686
:103E50008CB580618CBD8CB580648CBD61E084E3E1
:103E60000E94244661E083E30E9424468091B315BA
:103E70008F5F8093B315CFBFCF910895DC01ED9193
:103E8000FC91068CF78DE02D199591E08927089516
:103E9000862F089581E08627089585ED8093BC00E4
:103EA0008091BC0084FDFCCF1092B50C0895409128
:103EB000DB15262F30E0240F311D21323105DCF4D3
:103EC0002091B50C2430C9F4FC0180E090E0861705
:103ED00058F43091DB152191DC01A754BA4EA30FA1
:103EE000B11D2C930196F3CF8091DB15680F609381
:103EF000DB1580E0089581E0089582E0089508953B
:103F0000E091B90C8091B80CE81730F4F0E0E75379
:103F1000F74E808190E008958FEF9FEF0895909184
:103F2000B90C8091B80C981750F4E92FF0E0E753E2
:103F3000F74E208130E09F5F9093B90C02C02FEFC5
:103F40003FEFC90108958091B80C90E02091B90C21
:103F5000821B91090895CF92DF92EF92FF920F9307
:103F60001F93CF93DF937C01262F972F8A01809197
:103F70008C18882391F0C62FD72F6E01C40ED51E42
:103F8000CC15DD0569F06991D701ED91FC910190A7
:103F9000F081E02DC7011995F3CF642F822F87DFC1
:103FA000C801DF91CF911F910F91FF90EF90DF90AB
:103FB000CF900895CF93DF931F92CDB7DEB769837B
:103FC00020918C182223D1F02091B60C203240F0A1
:103FD00021E030E0FC013383228380E090E014C0D4
:103FE0008091B70CE82FF0E0E357F74E998190836A
:103FF0008F5F8093B70C8093B60C04C061E0CE0154
:10400000019655DF81E090E00F90DF91CF91089508
:104010002F923F924F925F926F927F928F929F92D8
:10402000AF92BF92CF92DF92EF92FF920F931F93C6
:10403000CF93DF93CDB7DEB765970FB6F894DEBFA9
:104040000FBECDBF7C016B013A01FB0120E080E097
:1040500090E06AE03191332309F140ED430F4A309B
:1040600080F4689FA001699F500D1124CA01C09778
:10407000830F911D37FD9A958F3F910559F350F3AA
:1040800013C03E3289F4233079F0D301A20FB11D61
:1040900012968C932F5F80E090E0DCCF233021F4E8
:1040A000F301858381E021C0F7014281538164815E
:1040B00075818091640C9091650CA091660CB09113
:1040C000670C481759076A077B0709F48BC10E94E0
:1040D000DC468701085F1F4F6F7077277C5FC80140
:1040E0000E949A29813019F080E090E0D7C186EAD9
:1040F00093E09A838983F70182819381A481B581BA
:104100008B839C83AD83BE8345E350E0BE016F5F2C
:104110007F4FC8010E94FE2A892B19F4C12CD12C93
:104120005DC10E94DC46F7017783668376276727A7
:1041300076277A83698342E050E0BE016F5F7F4F4C
:10414000C8010E94C42881E090E09E878D8742E0EC
:1041500050E0BE01635F7F4FC8010E94C42880E029
:1041600091E09E878D8742E050E0BE01635F7F4F04
:10417000C8010E94C4281E861D8642E050E0BE0190
:10418000635F7F4FC8010E94C42842E050E0BE0137
:10419000635F7F4FC801F8D742E050E0BE01635F24
:1041A0007F4FC801F1D75601F5018081882301F1C5
:1041B000F6015F018191811113C045018C189D08A2
:1041C0001814190484F48F8641E050E0BE01615F49
:1041D0007F4FC801D9D7A401B601C801D5D703C004
:1041E0008E3239F7EACF6501FFEFCF1ADF0ADCCF55
:1041F0001F8641E050E0BE01615F7F4FC801C4D718
:10420000C12CDD24D394DE86CD8642E050E0BE0191
:10421000635F7F4FC801B8D7DE86CD8642E050E0AD
:10422000BE01635F7F4FC801AFD7C8010E94F72965
:10423000892B09F473CF63E0A62EB12CF2E06F0E48
:10424000711C0E94DC461B012C01C80144D71816C2
:104250001906A4F00E94DC46DC01CB018219930907
:10426000A409B50989389341A105B105D0F462E3E9
:1042700070E080E090E00E94A446E7CFF701428121
:10428000538164817581808D918DA28DB38D481786
:1042900059076A077B0741F4848D958DC59721F4F2
:1042A00006C02FEF3FEF90C02EEF3FEF8DC0F7011C
:1042B00081A192A10C970CF49BC04CE050E0BE0190
:1042C0006F5F7F4FC80198D68B8190E0982F882729
:1042D0002C81822B9A8B898B298130E0322F2227E7
:1042E0004A81242BF701468157814217530709F071
:1042F0007CC097FF7AC08F709270892B09F0CBC079
:10430000CF80D12CDC2CCC248885C82AC114D104C0
:1043100009F4BEC0812C912C8D8190E0982F8827C4
:104320002E81822B8816990608F465C0812C912C69
:1043300041E050E0BE016D5E7F4FC8015DD68B89C4
:10434000982F907C09F083C0811177C08B898111EF
:10435000EFCF42E050E0BE01615F7F4FC8014CD615
:1043600042E050E0BE01635F7F4FC80145D6C801FF
:1043700062D6C80160D6C8015ED6C8015CD642E0EC
:1043800050E0BE016F5E7F4FC80136D68F85988999
:104390008115914009F05FC02D853E853227232786
:1043A00032272130310509F056C089899A89811553
:1043B000944009F06AC044E050E0B301C8012C8B7E
:1043C0003D8B1AD62C893D896901F1E0AF1AB108FD
:1043D00029F02FEFC216D20609F433CFC80195D7C2
:1043E000C6015CC08EEF9FEF59C02CEF3FEFECCFC2
:1043F0002DEF3FEFE9CF41E050E0BE01635F7F4F1B
:10440000C801FAD58D8581110FC08D858111F3CF3B
:10441000C80111D6C8010FD6C8010DD6C8010BD6E8
:10442000FFEF8F1A9F0A78CF8D859FEF980F9D879A
:10443000882359F3C801FFD5F7CF8B899FEF980FD9
:104440009B8B882309F482CFC801F5D5F6CFC8012C
:10445000F2D51B8A7BCF412C512C89899A899827C8
:10446000892798274816590630F4C801E4D58FEFFC
:10447000481A580AF2CFEFEF8E1A9E0A8C149D0448
:1044800009F056CF26EF3FEF9FCF27EF3FEF9CCFAE
:104490002AEF3FEF99CF2BEF3FEF96CF65960FB600
:1044A000F894DEBF0FBECDBFDF91CF911F910F916A
:1044B000FF90EF90DF90CF90BF90AF909F908F9044
:1044C0007F906F905F904F903F902F900895CF9284
:1044D000DF92EF92FF920F931F93CF93DF93CDB7AD
:1044E000DEB7AF970FB6F894DEBF0FBECDBF7C012D
:1044F0006A0106EA13E01A8309831C861B8688EE8C
:1045000093E0A0E0B0E08D879E87AF87B88B8AEDFF
:1045100093E09A878987188F0F8B198E1A8E1B8EBE
:104520001C8E84E089A31DA30CA31EA21FA218A6A3
:1045300019A680915C0C90915D0CA0915E0CB091DD
:104540005F0C8CA79DA7AEA7BFA78B839C83AD8371
:10455000BE8318861F82AE014C5D5F4FCE0101966F
:1045600057DD81309105B1F4D701ED91FC910684BE
:10457000F785E02D1BA70AA78EA19FA1A8A5B9A525
:104580008CA79DA7AEA7BFA7A601BE01665D7F4F02
:10459000C7011995AF960FB6F894DEBF0FBECDBF19
:1045A000DF91CF911F910F91FF90EF90DF90CF900F
:1045B00008951F920F920FB60F9211240BB60F920F
:1045C0002F933F934F935F936F937F938F939F931B
:1045D000AF93BF93EF93FF938091B900887F8036AC
:1045E00009F49CC068F5883209F45BC090F480310E
:1045F00009F454C038F4882309F4F6C0883009F46B
:104600004DC0F5C0883109F44CC0803209F45DC05A
:10461000EEC0803409F468C048F4803309F455C012
:10462000883309F0E4C080938B18D8C0803509F432
:104630004FC0883509F45DC0883409F0D8C0D6C0B1
:10464000883909F4C7C0A8F4883709F467C038F47A
:10465000883609F463C0803709F460C0C8C0883860
:1046600009F4B8C0803909F45FC0803809F0BFC0D0
:104670005BC0803B09F486C038F4803A09F466C018
:10468000883A09F47FC0B3C0803C09F4A7C0883CD5
:1046900009F4A4C0883B09F48AC0A9C080916818B5
:1046A00010C090918A1880918918981770F5E09140
:1046B0008A1881E08E0F80938A18F0E0E759F74E50
:1046C00080818093BB0085EC86C080938B188EC060
:1046D000E0918A1881E08E0F80938A188091BB0048
:1046E000F0E0E759F74E808390918A1880918918FD
:1046F0006EC0E0918A1881E08E0F80938A188091B5
:10470000BB00F0E0E759F74E80838091B40C811133
:104710006DC081E08093B30C84EA61C083E0809334
:10472000B50C1092FF15CFCF8091FF15803208F0A5
:1047300051C0E091FF1581E08E0F8093FF158091AD
:10474000BB00F0E0E152FA4E8083BDCF85EC809350
:10475000BC001092B50C8091FF15803230F4E091CE
:10476000FF15F0E0E152FA4E10826091FF1570E003
:10477000E091DD15F091DE158FED95E11995109220
:10478000FF1535C084E08093B50C1092DC151092B3
:10479000DB15E091D915F091DA1519958091DB15AB
:1047A000811105C081E08093DB151092B915E0916D
:1047B000DC1581E08E0F8093DC15F0E0E754FA4EB3
:1047C00080818093BB009091DC158091DB15981758
:1047D00008F479CF85E88093BC0009C085EC80930C
:1047E000BC001092B50C03C010928B1856DBFF91E1
:1047F000EF91BF91AF919F918F917F916F915F9159
:104800004F913F912F910F900BBE0F900FBE0F90C5
:104810001F901895CF93DF93EC018EE19BE00E94EF
:10482000AB55892B29F08EE19BE00E948955F5CF8D
:10483000BE018EE19BE00E949C596FEF70E08EE11B
:104840009BE00E94FA636FEF70E08EE19BE00E94B4
:10485000FA636FEF70E08EE19BE0DF91CF910C94F3
:10486000FA63EF92FF920F931F93CF93DF9300D0E1
:1048700000D0CDB7DEB77C018B0165EB7AE0CE01CD
:1048800001960E940658F70162817381CE0101965C
:104890000E9467576FE179E0CE0101960E94675749
:1048A000B801CE0101960E94675767EE79E0CE010C
:1048B00001960E94675789819A81ACDF0E94263752
:1048C000182FCE0101960E949F57812F26960FB672
:1048D000F894DEBF0FBECDBFDF91CF911F910F9136
:1048E000FF90EF9008950F931F93CF93DF9300D025
:1048F00000D0CDB7DEB7FC0102811381011511058F
:10490000B1F066E279E0CE0101960E940658B80146
:10491000CE0101960E94675789819A817BDF0E94B0
:104920002637182FCE0101960E949F5701C010E034
:10493000812F26960FB6F894DEBF0FBECDBFDF9154
:10494000CF911F910F9108958F929F92AF92BF9236
:10495000EF92FF920F931F93CF93DF93CDB7DEB704
:1049600060970FB6F894DEBF0FBECDBF7C014A0141
:104970005B018E010F5F1F4F8AE0F80111928A954B
:10498000E9F765EB7AE0CE010B960E9406584AE003
:10499000B801C4010E94137DF70162817381CE01C9
:1049A0000B960E9467576CE279E0CE010B960E944D
:1049B0006757B801CE010B960E9467578B859C857F
:1049C00029DF0E942637182FCE010B960E949F5791
:1049D000812F60960FB6F894DEBF0FBECDBFDF917A
:1049E000CF911F910F91FF90EF90BF90AF909F904C
:1049F0008F900895EF92FF920F931F93CF93DF93C1
:104A000000D000D0CDB7DEB77C018B0165EB7AE03A
:104A1000CE0101960E940658F70162817381CE0192
:104A200001960E9467576FE179E0CE0101960E94DE
:104A30006757B801CE0101960E94675767EE79E08B
:104A4000CE0101960E94675789819A81E3DE0E9418
:104A50002637182FCE0101960E949F57812F269648
:104A60000FB6F894DEBF0FBECDBFDF91CF911F917F
:104A70000F91FF90EF9008958091B4158823A9F1CC
:104A80004091DA025091DB026091DC027091DD020C
:104A900026E636E180916618909167180E9492434D
:104AA000811102C080E008954091B5155091B6156E
:104AB0006091B7157091B8154115510561057105E3
:104AC00091F026E636E180916618909167180E9471
:104AD0009243882339F31092B5151092B6151092AF
:104AE000B7151092B8151092B41581E008958F9201
:104AF0009F92AF92BF92EF92FF920F931F93CF932B
:104B00004B015C01C42F8091DA029091DB02A091ED
:104B1000DC02B091DD0288159905AA05BB05F9F004
:104B2000ABDF811102C080E020C086E6E82E86E17E
:104B3000F82E00E012E020E030E0B501A401809101
:104B40006618909167180E940743882361F380924A
:104B5000DA029092DB02A092DC02B092DD02809138
:104B6000B415C82BC093B41581E0CF911F910F915C
:104B7000FF90EF90BF90AF909F908F9008954F92CD
:104B80005F926F927F928F929F92AF92BF92CF92DD
:104B9000DF92EF92FF920F931F93CF93DF93EC017D
:104BA0006A017B0128013901423051056105710517
:104BB00010F480E072C089859A85AB85BC8501962A
:104BC000A11DB11D84179507A607B70790F38B8821
:104BD0009C88AD88BE888F89803129F4BB27AF2D92
:104BE0009E2D8D2D09C0DB01CA0147E0B695A79522
:104BF000979587954A95D1F7880E991EAA1EBB1ED8
:104C00008091DA029091DB02A091DC02B091DD028A
:104C100088169906AA06BB0679F48F89803199F423
:104C2000DD24EE24FF24C601880F991FFC01EA59F8
:104C3000F94E5182408218C040E0C501B40157DFEF
:104C40008111EBCFB6CFE894C7F8DD24EE24FF2422
:104C5000C601880F991F880F991FFC01EA59F94E68
:104C600040825182628273828091B4158160809308
:104C7000B4158A89823080F08D819E81AF81B8859C
:104C8000880E991EAA1EBB1E8092B5159092B6156D
:104C9000A092B715B092B81581E0DF91CF911F9126
:104CA0000F91FF90EF90DF90CF90BF90AF909F90CB
:104CB0008F907F906F905F904F9008958F929F920A
:104CC000AF92BF92CF92DF92EF92FF920F931F931A
:104CD000CF93DF93FC0181859285A385B4850196EE
:104CE000A11DB11D84179507A607B70710F480E032
:104CF0005BC083899489A589B689C789C03129F4A5
:104D0000852E962EA72EBB2409C04A015B01C7E061
:104D1000B694A79497948794CA95D1F7E9016A014C
:104D20007B018F01BC01CD01680D791D8A1D9B1D82
:104D30008090DA029090DB02A090DC02B090DD025D
:104D4000681579058A059B0599F4F80187898031F2
:104D5000A1F4B701A601552766277727440F551FF1
:104D6000FA01EA59F94E80819181A0E0B0E017C0C4
:104D700040E0BDDE8111E9CFBACFB701A6014F7780
:104D8000552766277727440F551F440F551FFA01F3
:104D9000EA59F94E80819181A281B381BF708883E5
:104DA0009983AA83BB8381E0DF91CF911F910F91FB
:104DB000FF90EF90DF90CF90BF90AF909F908F903B
:104DC00008954F925F926F927F92AF92BF92CF926F
:104DD000DF92EF92FF920F931F93CF93DF9300D058
:104DE0001F92CDB7DEB78C0149835A836B837C83D6
:104DF0005901C12CD12C7601412C82E0582E612C16
:104E0000712C49815A816B817C819E012F5F3F4FBC
:104E1000C80154DF882351F1D301C201F801058490
:104E200004C0880F991FAA1FBB1F0A94D2F7C80E8F
:104E3000D91EEA1EFB1E49815A816B817C818789BC
:104E4000803129F088EF9FEFAFEFBFE004C088EF1B
:104E50009FEFA0E0B0E0481759076A077B0788F288
:104E6000F501C082D182E282F38281E00F900F903F
:104E70000F900F90DF91CF911F910F91FF90EF90C6
:104E8000DF90CF90BF90AF907F906F905F904F90EA
:104E90000895CF93DF931F92CDB7DEB76983DC010E
:104EA000ED91FC910280F381E02D41E050E0BE01E4
:104EB0006F5F7F4F19950F90DF91CF910895FC019F
:104EC000818D928D0895FC0184899589089526EA43
:104ED00033E0FC0131832083FB01408951896289E1
:104EE0007389FC0142835383648375830895DC01D5
:104EF000ED91FC91048CF58DE02D199480E00895DE
:104F0000CF93DF931F92CDB7DEB76983DC01ED91BC
:104F1000FC910280F381E02D41E050E0BE016F5F23
:104F20007F4F19950F90DF91CF910895FC019485E3
:104F3000FB018485981303C081E0943009F480E07C
:104F4000089521E0FC018485843009F420E0822F5B
:104F500008950895CF93DF931F92CDB7DEB769838D
:104F6000DC01ED91FC910280F381E02D41E050E005
:104F7000BE016F5F7F4F19950F90DF91CF9108951C
:104F8000CF93DF931F92CDB7DEB7FC01218D328D19
:104F9000232B49F0BE016F5F7F4F808D0E94134924
:104FA000898190E002C08FEF9FEF0F90DF91CF914A
:104FB00008950F931F93CF93DF931F92CDB7DEB762
:104FC0008C01DC01ED91FC910084F185E02D1995B7
:104FD000892B51F0BE016F5F7F4FF80184850E94DD
:104FE0001349898190E002C08FEF9FEF0F90DF910E
:104FF000CF911F910F910895CF93DF93FC01218DE5
:10500000328D2115310519F48FEF9FEF11C0EC019E
:105010004217530708F0A901888D0E94714918169C
:10502000190694F7298D3A8D281B390B3A8F298F51
:10503000DF91CF9108950F931F93CF93DF931F922A
:10504000CDB7DEB7FC01218D328D232B61F08C01B1
:1050500041E050E0BE016F5F7F4F808D0E9471493B
:10506000181619061CF08FEF9FEF08C0F801818D0C
:10507000928D0197928F818F898190E00F90DF91BF
:10508000CF911F910F910895FC0184850C94714973
:10509000CF93DF931F92CDB7DEB741E050E0BE0162
:1050A0006F5F7F4FFC0184850E94714918161906B5
:1050B0001CF4898190E002C08FEF9FEF0F90DF9189
:1050C000CF910895FC018485843011F00C943F4900
:1050D00080E090E008950F931F93CF93DF93CDB7B7
:1050E000DEB728970FB6F894DEBF0FBECDBF8C0198
:1050F000F801818D928D892B49F0D801ED91FC91B9
:105100000284F385E02DC8011995F2CF808D0E94AD
:105110003F49181619065CF548E050E0BE016F5F84
:105120007F4FD80158968C910E9471499C011816A6
:105130001906DCF489819A81AB81BC81F801808BEE
:10514000918BA28BB38B8D8190E0982F88272E8135
:10515000820F911D958B848B2F8130E0322F222777
:105160008885280F311D328F218FC90102C080E050
:1051700090E028960FB6F894DEBF0FBECDBFDF914A
:10518000CF911F910F9108958F929F92AF92BF92EE
:10519000CF92DF92EF92FF920F931F93CF93DF9303
:1051A0001F921F92CDB7DEB76C014B017A01FC0153
:1051B000A688B788108D00E021E040E059E06DE35B
:1051C00070E0CE0101960E94211D89819A810E9482
:1051D0009542812F0E9401648E159F0520F4812F36
:1051E0000E9401647C019701A401B501812F0E94F6
:1051F000D1540E945142F601868997898E0D9F1DD8
:10520000978B868BC7010F900F90DF91CF911F91E5
:105210000F91FF90EF90DF90CF90BF90AF909F9055
:105220008F900895CF92DF92EF92FF920F931F938A
:10523000CF93DF93CDB7DEB7AF970FB6F894DEBF4D
:105240000FBECDBF7C016A0106EA13E01A83098311
:105250001C861B8688EE93E0A0E0B0E08D879E87D9
:10526000AF87B88B8AED93E09A878987188F0F8B69
:10527000198E1A8E1B8E1C8E84E089A31DA30CA38D
:105280001EA21FA218A619A680915C0C90915D0C1D
:10529000A0915E0CB0915F0C8CA79DA7AEA7BFA795
:1052A0008B839C83AD83BE8318861F82AE014C5DC9
:1052B0005F4FCE0101960E94082081309105B1F424
:1052C000D701ED91FC910488F589E02D1BA70AA771
:1052D0008EA19FA1A8A5B9A58CA79DA7AEA7BFA782
:1052E000A601BE01665D7F4FC7011995AF960FB647
:1052F000F894DEBF0FBECDBFDF91CF911F910F910C
:10530000FF90EF90DF90CF900895CF93DF93EC0163
:10531000888D843061F00E94D549E88DF0E0EE0F71
:10532000FF1FE050FA4E1182108284E0888FDF91D7
:10533000CF910895EF92FF921F93CF93DF93FC01DB
:10534000208D243011F080E01CC07B01EC0110E0C6
:10535000812F0E94C24A811102C0188F05C0883176
:10536000E1F31F5F1430A1F7888D843061F3FD866F
:10537000EC861A8E198E20E0A70162E00E94FE4999
:1053800081E0DF91CF911F91FF90EF9008959B01F5
:1053900090E00496982F8827642F820F931F0C9417
:1053A000DE480F931F93CF93DF931F92CDB7DEB7E5
:1053B00090E00496982F88278C01060F171F0E94F3
:1053C00089488FE00E945C42812F0E945C42802FBE
:1053D0000E945C4280E00E945C4289830E94874870
:1053E00089810F90DF91CF911F910F9108950F93B5
:1053F0001F93CF93DF931F921F92CDB7DEB7FC01AF
:10540000108D00E021E040E059E06DE370E0CE0156
:1054100001960E94211D89819A810E94954260E235
:1054200070E0812F0E940E5362E070E0812FB9DF9F
:1054300084FD21C062E070E0812FB3DF83FF0AC0EA
:1054400048E162E070E0812FA2DF0E94514280E0DB
:1054500090E01AC00E94514200E021E040E059E093
:105460006DE370E0CE0101960E94211D89819A8131
:105470000E949542D9CF40E162E070E0812F87DF42
:105480000E94514281E090E00F900F90DF91CF9108
:105490001F910F9108956F927F928F929F92AF927A
:1054A000BF92CF92DF92EF92FF920F931F93CF9311
:1054B000DF931F921F92CDB7DEB75C014B016A01EB
:1054C000FC011485143041F481E090E0F5019383F0
:1054D000828380E090E072C07A014130584018F039
:1054E000E12C88E0F82E00E021E040E059E06DE397
:1054F00070E0CE0101960E94211D89819A810E944F
:105500009542812F0E9401643C0163E070E0812F8D
:1055100048DF082F0E945142073111F00C3121F46D
:105520006E147F0400F302C0E12CF12C00E021E0B6
:1055300040E059E06DE370E0CE0101960E94211D2C
:1055400089819A810E9495429701A40160E070E0F0
:10555000812F0E94D15460E270E0812F0E940E538F
:1055600062E070E0812F1DDF84FD1DC063E070E00C
:10557000812F17DF811106C00E945142812F0E94A6
:10558000D549A2CF0E94514200E021E040E059E01D
:105590006DE370E0CE0101960E94211D89819A8100
:1055A0000E949542DDCF40E162E070E0812FEFDEA6
:1055B0000E945142EF2809F487CFC6010F900F9047
:1055C000DF91CF911F910F91FF90EF90DF90CF90DF
:1055D000BF90AF909F908F907F906F900895CF93E2
:1055E000DF93C82FD62F472F60E170E0D0DE4D2F1C
:1055F00061E170E08C2FDF91CF91C9CECF92DF9225
:10560000EF92FF920F931F93CF93DF931F921F92FE
:10561000CDB7DEB7FB01DC0157961C921E92569760
:1056200058961C918281811109C08381811106C025
:105630008481811103C08581882341F14115510581
:1056400029F16A017F0100E021E040E059E06DE3CB
:1056500070E0CE0101960E94211D89819A810E94ED
:105660009542B7016E5F7F4F212F30E0922F882740
:1056700044E050E0845F9B4F0E94B548B601812F03
:10568000AEDF0E94514281E090E002C080E090E0F5
:105690000F900F90DF91CF911F910F91FF90EF909E
:1056A000DF90CF900895FC018485843011F00C9434
:1056B000C24A80E008958F929F92AF92BF92CF929C
:1056C000DF92EF92FF920F931F93CF93DF93CDB7AB
:1056D000DEB72F970FB6F894DEBF0FBECDBF6C01BB
:1056E000E12CF12C38EE832E33E0932EA12CB12C3B
:1056F00002E413E01C821B828D829E82AF82B886F8
:105700001A830983ED86CE010196CDDF81112EC06B
:10571000F6014481558120E061E08E2D0E94FE4912
:1057200000E021E040E059E06DE370E0CE010E962C
:105730000E94211D8E859F850E94954263E070E046
:105740008E2D2FDE833129F462E070E08E2D0E94D1
:105750000E530E945142F60184819581F701EE0FAC
:10576000FF1FE050FA4E9183808308C0FFEFEF1ACD
:10577000FF0A84E0E816F10409F0BCCF2F960FB6BB
:10578000F894DEBF0FBECDBFDF91CF911F910F9177
:10579000FF90EF90DF90CF90BF90AF909F908F9051
:1057A0000895CF93DF93FC0124852430C9F0EC01E8
:1057B0007ADF843181F0882371F0883161F08C3197
:1057C00061F4E881F9810084F185E02DCE0119951D
:1057D00021E0892B19F420E001C021E0822F01C0D3
:1057E00080E0DF91CF9108958F929F92AF92BF9208
:1057F000EF92FF920F931F93CF93DF931F921F920D
:10580000CDB7DEB7DC011C961C91143009F443C0FF
:105810007C0100E021E040E059E06DE370E0CE0162
:1058200001960E94211D89819A810E94954268E01B
:1058300070E0812F0E940E530E9451420E94DC466C
:105840004B015C01C7012FDF8823B9F061E070E0F4
:1058500080E090E00E94A4460E94DC46DC01CB017F
:1058600088199909AA09BB09883E9340A105B10589
:1058700048F3F70184850E94D549D7011C96EC9125
:105880001C97F0E0EE0FFF1FE050FA4E11821082DD
:1058900084E01C968C930F900F90DF91CF911F9115
:1058A0000F91FF90EF90BF90AF909F908F900895D1
:1058B0004F925F926F927F928F929F92AF92BF9220
:1058C000CF92DF92EF92FF921F93CF93DF93CDB7EA
:1058D000DEB72D970FB6F894DEBF0FBECDBF7C01AB
:1058E00090E0A92E96E1B92E10E0C12CD12C28EE23
:1058F000422E23E0522E612C712C32E4832E33E0B1
:10590000932E1C821B824D825E826F8278869A82E1
:1059100089821D87D5012D913D915D01F70184811B
:1059200095812817390799F4CE010196BCDE8431A0
:1059300059F0CE010196B7DE8C3149F4CE010196C3
:10594000C1DB892B91F003C0CC24C394D12C1F5F01
:105950001430B9F6CD2869F4D701ED91FC9100849B
:10596000F185E02DC701199504C0CE0101963CDFF9
:10597000EECF2D960FB6F894DEBF0FBECDBFDF91F0
:10598000CF911F91FF90EF90DF90CF90BF90AF909D
:105990009F908F907F906F905F904F9008952F927F
:1059A0003F924F925F926F927F928F929F92AF92AF
:1059B000BF92CF92DF92EF92FF920F931F93CF93FC
:1059C000DF93CDB7DEB72E970FB6F894DEBF0FBECC
:1059D000CDBF7C016B015A016BDF00E016E120E0D6
:1059E000612C712C88EE282E83E0382E412C512C0E
:1059F00092E4892E93E0992E1C821B822D823E8296
:105A00004F8258869A8289822D87F801419151915F
:105A10008F01F701848195814817590739F4CE0128
:105A200001962E8740DE2E858731E9F02F5F2430E6
:105A300019F7C3012E960FB6F894DEBF0FBECDBF87
:105A4000DF91CF911F910F91FF90EF90DF90CF905A
:105A5000BF90AF909F908F907F906F905F904F908E
:105A60003F902F900895A501B601CE0101962E8793
:105A700012DD680E791E2E85D9CFAF92BF92CF92DC
:105A8000DF92EF92FF920F931F93CF93DF931F92BA
:105A90001F92CDB7DEB7FC012485243009F081C008
:105AA0005A017B016C0110E0812F0E94C24A8111D2
:105AB00003C0F601148706C08B7F8831D1F31F5FC6
:105AC000143091F7F6018485843009F46AC020917E
:105AD000DE023091DF022F5F3F4F11F420E030EC07
